{
  "contractName": "ForgeToken",
  "abi": [
    {
      "anonymous": false,
      "inputs": [
        {
          "indexed": true,
          "internalType": "address",
          "name": "account",
          "type": "address"
        },
        {
          "indexed": true,
          "internalType": "address",
          "name": "operator",
          "type": "address"
        },
        {
          "indexed": false,
          "internalType": "bool",
          "name": "approved",
          "type": "bool"
        }
      ],
      "name": "ApprovalForAll",
      "type": "event"
    },
    {
      "anonymous": false,
      "inputs": [
        {
          "indexed": false,
          "internalType": "address",
          "name": "account",
          "type": "address"
        }
      ],
      "name": "Paused",
      "type": "event"
    },
    {
      "anonymous": false,
      "inputs": [
        {
          "indexed": true,
          "internalType": "bytes32",
          "name": "role",
          "type": "bytes32"
        },
        {
          "indexed": true,
          "internalType": "bytes32",
          "name": "previousAdminRole",
          "type": "bytes32"
        },
        {
          "indexed": true,
          "internalType": "bytes32",
          "name": "newAdminRole",
          "type": "bytes32"
        }
      ],
      "name": "RoleAdminChanged",
      "type": "event"
    },
    {
      "anonymous": false,
      "inputs": [
        {
          "indexed": true,
          "internalType": "bytes32",
          "name": "role",
          "type": "bytes32"
        },
        {
          "indexed": true,
          "internalType": "address",
          "name": "account",
          "type": "address"
        },
        {
          "indexed": true,
          "internalType": "address",
          "name": "sender",
          "type": "address"
        }
      ],
      "name": "RoleGranted",
      "type": "event"
    },
    {
      "anonymous": false,
      "inputs": [
        {
          "indexed": true,
          "internalType": "bytes32",
          "name": "role",
          "type": "bytes32"
        },
        {
          "indexed": true,
          "internalType": "address",
          "name": "account",
          "type": "address"
        },
        {
          "indexed": true,
          "internalType": "address",
          "name": "sender",
          "type": "address"
        }
      ],
      "name": "RoleRevoked",
      "type": "event"
    },
    {
      "anonymous": false,
      "inputs": [
        {
          "indexed": true,
          "internalType": "address",
          "name": "operator",
          "type": "address"
        },
        {
          "indexed": true,
          "internalType": "address",
          "name": "from",
          "type": "address"
        },
        {
          "indexed": true,
          "internalType": "address",
          "name": "to",
          "type": "address"
        },
        {
          "indexed": false,
          "internalType": "uint256[]",
          "name": "ids",
          "type": "uint256[]"
        },
        {
          "indexed": false,
          "internalType": "uint256[]",
          "name": "values",
          "type": "uint256[]"
        }
      ],
      "name": "TransferBatch",
      "type": "event"
    },
    {
      "anonymous": false,
      "inputs": [
        {
          "indexed": true,
          "internalType": "address",
          "name": "operator",
          "type": "address"
        },
        {
          "indexed": true,
          "internalType": "address",
          "name": "from",
          "type": "address"
        },
        {
          "indexed": true,
          "internalType": "address",
          "name": "to",
          "type": "address"
        },
        {
          "indexed": false,
          "internalType": "uint256",
          "name": "id",
          "type": "uint256"
        },
        {
          "indexed": false,
          "internalType": "uint256",
          "name": "value",
          "type": "uint256"
        }
      ],
      "name": "TransferSingle",
      "type": "event"
    },
    {
      "anonymous": false,
      "inputs": [
        {
          "indexed": false,
          "internalType": "string",
          "name": "value",
          "type": "string"
        },
        {
          "indexed": true,
          "internalType": "uint256",
          "name": "id",
          "type": "uint256"
        }
      ],
      "name": "URI",
      "type": "event"
    },
    {
      "anonymous": false,
      "inputs": [
        {
          "indexed": false,
          "internalType": "address",
          "name": "account",
          "type": "address"
        }
      ],
      "name": "Unpaused",
      "type": "event"
    },
    {
      "inputs": [],
      "name": "DEFAULT_ADMIN_ROLE",
      "outputs": [
        {
          "internalType": "bytes32",
          "name": "",
          "type": "bytes32"
        }
      ],
      "stateMutability": "view",
      "type": "function",
      "constant": true
    },
    {
      "inputs": [],
      "name": "MINTER_ROLE",
      "outputs": [
        {
          "internalType": "bytes32",
          "name": "",
          "type": "bytes32"
        }
      ],
      "stateMutability": "view",
      "type": "function",
      "constant": true
    },
    {
      "inputs": [],
      "name": "PAUSER_ROLE",
      "outputs": [
        {
          "internalType": "bytes32",
          "name": "",
          "type": "bytes32"
        }
      ],
      "stateMutability": "view",
      "type": "function",
      "constant": true
    },
    {
      "inputs": [
        {
          "internalType": "address",
          "name": "account",
          "type": "address"
        },
        {
          "internalType": "uint256",
          "name": "id",
          "type": "uint256"
        }
      ],
      "name": "balanceOf",
      "outputs": [
        {
          "internalType": "uint256",
          "name": "",
          "type": "uint256"
        }
      ],
      "stateMutability": "view",
      "type": "function",
      "constant": true
    },
    {
      "inputs": [
        {
          "internalType": "address[]",
          "name": "accounts",
          "type": "address[]"
        },
        {
          "internalType": "uint256[]",
          "name": "ids",
          "type": "uint256[]"
        }
      ],
      "name": "balanceOfBatch",
      "outputs": [
        {
          "internalType": "uint256[]",
          "name": "",
          "type": "uint256[]"
        }
      ],
      "stateMutability": "view",
      "type": "function",
      "constant": true
    },
    {
      "inputs": [
        {
          "internalType": "address",
          "name": "account",
          "type": "address"
        },
        {
          "internalType": "uint256",
          "name": "id",
          "type": "uint256"
        },
        {
          "internalType": "uint256",
          "name": "value",
          "type": "uint256"
        }
      ],
      "name": "burn",
      "outputs": [],
      "stateMutability": "nonpayable",
      "type": "function"
    },
    {
      "inputs": [
        {
          "internalType": "address",
          "name": "account",
          "type": "address"
        },
        {
          "internalType": "uint256[]",
          "name": "ids",
          "type": "uint256[]"
        },
        {
          "internalType": "uint256[]",
          "name": "values",
          "type": "uint256[]"
        }
      ],
      "name": "burnBatch",
      "outputs": [],
      "stateMutability": "nonpayable",
      "type": "function"
    },
    {
      "inputs": [],
      "name": "ethFee",
      "outputs": [
        {
          "internalType": "uint256",
          "name": "",
          "type": "uint256"
        }
      ],
      "stateMutability": "view",
      "type": "function",
      "constant": true
    },
    {
      "inputs": [
        {
          "internalType": "uint256",
          "name": "",
          "type": "uint256"
        }
      ],
      "name": "expirations",
      "outputs": [
        {
          "internalType": "uint256",
          "name": "",
          "type": "uint256"
        }
      ],
      "stateMutability": "view",
      "type": "function",
      "constant": true
    },
    {
      "inputs": [],
      "name": "feeRecipient",
      "outputs": [
        {
          "internalType": "address payable",
          "name": "",
          "type": "address"
        }
      ],
      "stateMutability": "view",
      "type": "function",
      "constant": true
    },
    {
      "inputs": [
        {
          "internalType": "bytes32",
          "name": "role",
          "type": "bytes32"
        }
      ],
      "name": "getRoleAdmin",
      "outputs": [
        {
          "internalType": "bytes32",
          "name": "",
          "type": "bytes32"
        }
      ],
      "stateMutability": "view",
      "type": "function",
      "constant": true
    },
    {
      "inputs": [
        {
          "internalType": "bytes32",
          "name": "role",
          "type": "bytes32"
        },
        {
          "internalType": "uint256",
          "name": "index",
          "type": "uint256"
        }
      ],
      "name": "getRoleMember",
      "outputs": [
        {
          "internalType": "address",
          "name": "",
          "type": "address"
        }
      ],
      "stateMutability": "view",
      "type": "function",
      "constant": true
    },
    {
      "inputs": [
        {
          "internalType": "bytes32",
          "name": "role",
          "type": "bytes32"
        }
      ],
      "name": "getRoleMemberCount",
      "outputs": [
        {
          "internalType": "uint256",
          "name": "",
          "type": "uint256"
        }
      ],
      "stateMutability": "view",
      "type": "function",
      "constant": true
    },
    {
      "inputs": [
        {
          "internalType": "bytes32",
          "name": "role",
          "type": "bytes32"
        },
        {
          "internalType": "address",
          "name": "account",
          "type": "address"
        }
      ],
      "name": "grantRole",
      "outputs": [],
      "stateMutability": "nonpayable",
      "type": "function"
    },
    {
      "inputs": [
        {
          "internalType": "bytes32",
          "name": "role",
          "type": "bytes32"
        },
        {
          "internalType": "address",
          "name": "account",
          "type": "address"
        }
      ],
      "name": "hasRole",
      "outputs": [
        {
          "internalType": "bool",
          "name": "",
          "type": "bool"
        }
      ],
      "stateMutability": "view",
      "type": "function",
      "constant": true
    },
    {
      "inputs": [
        {
          "internalType": "uint256",
          "name": "",
          "type": "uint256"
        }
      ],
      "name": "ipfsHashes",
      "outputs": [
        {
          "internalType": "string",
          "name": "",
          "type": "string"
        }
      ],
      "stateMutability": "view",
      "type": "function",
      "constant": true
    },
    {
      "inputs": [
        {
          "internalType": "address",
          "name": "account",
          "type": "address"
        },
        {
          "internalType": "address",
          "name": "operator",
          "type": "address"
        }
      ],
      "name": "isApprovedForAll",
      "outputs": [
        {
          "internalType": "bool",
          "name": "",
          "type": "bool"
        }
      ],
      "stateMutability": "view",
      "type": "function",
      "constant": true
    },
    {
      "inputs": [
        {
          "internalType": "uint256",
          "name": "",
          "type": "uint256"
        }
      ],
      "name": "minBalances",
      "outputs": [
        {
          "internalType": "uint256",
          "name": "",
          "type": "uint256"
        }
      ],
      "stateMutability": "view",
      "type": "function",
      "constant": true
    },
    {
      "inputs": [
        {
          "internalType": "address",
          "name": "to",
          "type": "address"
        },
        {
          "internalType": "uint256",
          "name": "id",
          "type": "uint256"
        },
        {
          "internalType": "uint256",
          "name": "amount",
          "type": "uint256"
        },
        {
          "internalType": "bytes",
          "name": "data",
          "type": "bytes"
        }
      ],
      "name": "mint",
      "outputs": [],
      "stateMutability": "nonpayable",
      "type": "function"
    },
    {
      "inputs": [
        {
          "internalType": "address",
          "name": "to",
          "type": "address"
        },
        {
          "internalType": "uint256[]",
          "name": "ids",
          "type": "uint256[]"
        },
        {
          "internalType": "uint256[]",
          "name": "amounts",
          "type": "uint256[]"
        },
        {
          "internalType": "bytes",
          "name": "data",
          "type": "bytes"
        }
      ],
      "name": "mintBatch",
      "outputs": [],
      "stateMutability": "nonpayable",
      "type": "function"
    },
    {
      "inputs": [],
      "name": "pause",
      "outputs": [],
      "stateMutability": "nonpayable",
      "type": "function"
    },
    {
      "inputs": [],
      "name": "paused",
      "outputs": [
        {
          "internalType": "bool",
          "name": "",
          "type": "bool"
        }
      ],
      "stateMutability": "view",
      "type": "function",
      "constant": true
    },
    {
      "inputs": [
        {
          "internalType": "bytes32",
          "name": "role",
          "type": "bytes32"
        },
        {
          "internalType": "address",
          "name": "account",
          "type": "address"
        }
      ],
      "name": "renounceRole",
      "outputs": [],
      "stateMutability": "nonpayable",
      "type": "function"
    },
    {
      "inputs": [
        {
          "internalType": "bytes32",
          "name": "role",
          "type": "bytes32"
        },
        {
          "internalType": "address",
          "name": "account",
          "type": "address"
        }
      ],
      "name": "revokeRole",
      "outputs": [],
      "stateMutability": "nonpayable",
      "type": "function"
    },
    {
      "inputs": [
        {
          "internalType": "address",
          "name": "from",
          "type": "address"
        },
        {
          "internalType": "address",
          "name": "to",
          "type": "address"
        },
        {
          "internalType": "uint256[]",
          "name": "ids",
          "type": "uint256[]"
        },
        {
          "internalType": "uint256[]",
          "name": "amounts",
          "type": "uint256[]"
        },
        {
          "internalType": "bytes",
          "name": "data",
          "type": "bytes"
        }
      ],
      "name": "safeBatchTransferFrom",
      "outputs": [],
      "stateMutability": "nonpayable",
      "type": "function"
    },
    {
      "inputs": [
        {
          "internalType": "address",
          "name": "from",
          "type": "address"
        },
        {
          "internalType": "address",
          "name": "to",
          "type": "address"
        },
        {
          "internalType": "uint256",
          "name": "id",
          "type": "uint256"
        },
        {
          "internalType": "uint256",
          "name": "amount",
          "type": "uint256"
        },
        {
          "internalType": "bytes",
          "name": "data",
          "type": "bytes"
        }
      ],
      "name": "safeTransferFrom",
      "outputs": [],
      "stateMutability": "nonpayable",
      "type": "function"
    },
    {
      "inputs": [
        {
          "internalType": "address",
          "name": "operator",
          "type": "address"
        },
        {
          "internalType": "bool",
          "name": "approved",
          "type": "bool"
        }
      ],
      "name": "setApprovalForAll",
      "outputs": [],
      "stateMutability": "nonpayable",
      "type": "function"
    },
    {
      "inputs": [
        {
          "internalType": "bytes4",
          "name": "interfaceId",
          "type": "bytes4"
        }
      ],
      "name": "supportsInterface",
      "outputs": [
        {
          "internalType": "bool",
          "name": "",
          "type": "bool"
        }
      ],
      "stateMutability": "view",
      "type": "function",
      "constant": true
    },
    {
      "inputs": [
        {
          "internalType": "uint256",
          "name": "",
          "type": "uint256"
        }
      ],
      "name": "tokenMinBalances",
      "outputs": [
        {
          "internalType": "address",
          "name": "",
          "type": "address"
        }
      ],
      "stateMutability": "view",
      "type": "function",
      "constant": true
    },
    {
      "inputs": [],
      "name": "unpause",
      "outputs": [],
      "stateMutability": "nonpayable",
      "type": "function"
    },
    {
      "inputs": [],
      "name": "zut",
      "outputs": [
        {
          "internalType": "contract IERC20Upgradeable",
          "name": "",
          "type": "address"
        }
      ],
      "stateMutability": "view",
      "type": "function",
      "constant": true
    },
    {
      "inputs": [],
      "name": "zutFee",
      "outputs": [
        {
          "internalType": "uint256",
          "name": "",
          "type": "uint256"
        }
      ],
      "stateMutability": "view",
      "type": "function",
      "constant": true
    },
    {
      "inputs": [
        {
          "internalType": "contract IERC20Upgradeable",
          "name": "_zut",
          "type": "address"
        },
        {
          "internalType": "address payable",
          "name": "_feeRecipient",
          "type": "address"
        },
        {
          "internalType": "uint256",
          "name": "_ethFee",
          "type": "uint256"
        },
        {
          "internalType": "uint256",
          "name": "_zutFee",
          "type": "uint256"
        }
      ],
      "name": "initialize",
      "outputs": [],
      "stateMutability": "nonpayable",
      "type": "function"
    },
    {
      "inputs": [
        {
          "internalType": "string",
          "name": "uri",
          "type": "string"
        }
      ],
      "name": "initialize",
      "outputs": [],
      "stateMutability": "nonpayable",
      "type": "function"
    },
    {
      "inputs": [
        {
          "internalType": "uint256",
          "name": "tokenId",
          "type": "uint256"
        }
      ],
      "name": "uri",
      "outputs": [
        {
          "internalType": "string",
          "name": "",
          "type": "string"
        }
      ],
      "stateMutability": "view",
      "type": "function",
      "constant": true
    },
    {
      "inputs": [],
      "name": "currentTokenId",
      "outputs": [
        {
          "internalType": "uint256",
          "name": "",
          "type": "uint256"
        }
      ],
      "stateMutability": "view",
      "type": "function",
      "constant": true
    },
    {
      "inputs": [],
      "name": "contractURI",
      "outputs": [
        {
          "internalType": "string",
          "name": "",
          "type": "string"
        }
      ],
      "stateMutability": "view",
      "type": "function",
      "constant": true
    },
    {
      "inputs": [
        {
          "internalType": "uint256",
          "name": "tokenId",
          "type": "uint256"
        },
        {
          "internalType": "address",
          "name": "user",
          "type": "address"
        }
      ],
      "name": "canBurn",
      "outputs": [
        {
          "internalType": "bool",
          "name": "burnable",
          "type": "bool"
        }
      ],
      "stateMutability": "view",
      "type": "function",
      "constant": true
    },
    {
      "inputs": [
        {
          "internalType": "uint256",
          "name": "tokenId",
          "type": "uint256"
        }
      ],
      "name": "getConditions",
      "outputs": [
        {
          "internalType": "address",
          "name": "token",
          "type": "address"
        },
        {
          "internalType": "uint256",
          "name": "minAmount",
          "type": "uint256"
        },
        {
          "internalType": "uint256",
          "name": "expires",
          "type": "uint256"
        }
      ],
      "stateMutability": "view",
      "type": "function",
      "constant": true
    },
    {
      "inputs": [
        {
          "internalType": "uint256",
          "name": "amountTokens",
          "type": "uint256"
        },
        {
          "internalType": "address",
          "name": "tokenAddress",
          "type": "address"
        },
        {
          "internalType": "uint256",
          "name": "minBalance",
          "type": "uint256"
        },
        {
          "internalType": "uint256",
          "name": "expiration",
          "type": "uint256"
        },
        {
          "internalType": "string",
          "name": "ipfsHash",
          "type": "string"
        }
      ],
      "name": "buyWithETH",
      "outputs": [],
      "stateMutability": "payable",
      "type": "function",
      "payable": true
    },
    {
      "inputs": [
        {
          "internalType": "uint256",
          "name": "amountTokens",
          "type": "uint256"
        },
        {
          "internalType": "address",
          "name": "tokenAddress",
          "type": "address"
        },
        {
          "internalType": "uint256",
          "name": "minBalance",
          "type": "uint256"
        },
        {
          "internalType": "uint256",
          "name": "expiration",
          "type": "uint256"
        },
        {
          "internalType": "string",
          "name": "ipfsHash",
          "type": "string"
        }
      ],
      "name": "buyWithZUT",
      "outputs": [],
      "stateMutability": "nonpayable",
      "type": "function"
    },
    {
      "inputs": [
        {
          "internalType": "uint256",
          "name": "tokenId",
          "type": "uint256"
        },
        {
          "internalType": "address",
          "name": "user",
          "type": "address"
        }
      ],
      "name": "burnToken",
      "outputs": [],
      "stateMutability": "nonpayable",
      "type": "function"
    },
    {
      "inputs": [
        {
          "internalType": "uint256[]",
          "name": "tokenIds",
          "type": "uint256[]"
        },
        {
          "internalType": "address[]",
          "name": "users",
          "type": "address[]"
        }
      ],
      "name": "burnTokenBatch",
      "outputs": [],
      "stateMutability": "nonpayable",
      "type": "function"
    },
    {
      "inputs": [
        {
          "internalType": "string",
          "name": "ipfsUrl",
          "type": "string"
        }
      ],
      "name": "setContractURI",
      "outputs": [],
      "stateMutability": "nonpayable",
      "type": "function"
    },
    {
      "inputs": [
        {
          "internalType": "string",
          "name": "baseURI",
          "type": "string"
        }
      ],
      "name": "setBaseURI",
      "outputs": [],
      "stateMutability": "nonpayable",
      "type": "function"
    },
    {
      "inputs": [
        {
          "internalType": "uint256",
          "name": "_ethFee",
          "type": "uint256"
        }
      ],
      "name": "setETHFee",
      "outputs": [],
      "stateMutability": "nonpayable",
      "type": "function"
    },
    {
      "inputs": [
        {
          "internalType": "uint256",
          "name": "_zutFee",
          "type": "uint256"
        }
      ],
      "name": "setZUTFee",
      "outputs": [],
      "stateMutability": "nonpayable",
      "type": "function"
    },
    {
      "inputs": [
        {
          "internalType": "address payable",
          "name": "_feeRecipient",
          "type": "address"
        }
      ],
      "name": "setFeeRecipient",
      "outputs": [],
      "stateMutability": "nonpayable",
      "type": "function"
    }
  ],
  "bytecode": "0x608060405234801561001057600080fd5b50614f6a806100206000396000f3fe6080604052600436106102915760003560e01c8063731133e91161015a578063ca15c873116100c1578063e8a3d4851161007a578063e8a3d485146113ac578063e985e9c5146113c1578063eb990c59146113fc578063f242432a14611445578063f5298aca1461151b578063f62d18881461155a57610291565b8063ca15c873146112b3578063d5391393146112dd578063d547741f146112f2578063dc593ca51461132b578063e63ab1e914611364578063e74b981b1461137957610291565b80639c9e391a116101135780639c9e391a14611078578063a217fddf1461113d578063a22cb46514611152578063a4de2f5c1461118d578063b4b1a155146111b7578063c251ddf81461128957610291565b8063731133e914610d4c5780638456cb5914610e195780639010d07c14610e2e57806391d1485414610e5e578063938e3d7b14610e975780639a63603014610f4857610291565b80632f2ff15d116101fe5780634e1273f4116101b75780634e1273f41461098757806353678cb214610b0757806355f804b314610b315780635c975abb14610be257806361f322a714610bf75780636b20c45414610c0c57610291565b80632f2ff15d146108ac57806336568abe146108e55780633e8f682f1461091e5780633f4ba83a14610948578063469048401461095d5780634cf1115d1461097257610291565b80631ba313f2116102505780631ba313f2146104475780631eada765146104715780631f7fdffa146104c3578063248a9ca31461068a57806328d199db146106b45780632eb2c2d6146106de57610291565b80629a9b7b14610296578062fdd58e146102bd57806301ffc9a7146102f65780630e89341c1461033e578063114e5e9a146103dd57806313ce7e601461040e575b600080fd5b3480156102a257600080fd5b506102ab61160b565b60408051918252519081900360200190f35b3480156102c957600080fd5b506102ab600480360360408110156102e057600080fd5b506001600160a01b03813516906020013561161e565b34801561030257600080fd5b5061032a6004803603602081101561031957600080fd5b50356001600160e01b031916611690565b604080519115158252519081900360200190f35b34801561034a57600080fd5b506103686004803603602081101561036157600080fd5b50356116af565b6040805160208082528351818301528351919283929083019185019080838360005b838110156103a257818101518382015260200161038a565b50505050905090810190601f1680156103cf5780820380516001836020036101000a031916815260200191505b509250505060405180910390f35b3480156103e957600080fd5b506103f26117e1565b604080516001600160a01b039092168252519081900360200190f35b34801561041a57600080fd5b5061032a6004803603604081101561043157600080fd5b50803590602001356001600160a01b03166117f1565b34801561045357600080fd5b506102ab6004803603602081101561046a57600080fd5b5035611921565b34801561047d57600080fd5b5061049b6004803603602081101561049457600080fd5b5035611934565b604080516001600160a01b039094168452602084019290925282820152519081900360600190f35b3480156104cf57600080fd5b50610688600480360360808110156104e657600080fd5b6001600160a01b038235169190810190604081016020820135600160201b81111561051057600080fd5b82018360208201111561052257600080fd5b803590602001918460208302840111600160201b8311171561054357600080fd5b9190808060200260200160405190810160405280939291908181526020018383602002808284376000920191909152509295949360208101935035915050600160201b81111561059257600080fd5b8201836020820111156105a457600080fd5b803590602001918460208302840111600160201b831117156105c557600080fd5b9190808060200260200160405190810160405280939291908181526020018383602002808284376000920191909152509295949360208101935035915050600160201b81111561061457600080fd5b82018360208201111561062657600080fd5b803590602001918460018302840111600160201b8311171561064757600080fd5b91908080601f01602080910402602001604051908101604052809392919081815260200183838082843760009201919091525092955061196a945050505050565b005b34801561069657600080fd5b506102ab600480360360208110156106ad57600080fd5b50356119d6565b3480156106c057600080fd5b506103f2600480360360208110156106d757600080fd5b50356119eb565b3480156106ea57600080fd5b50610688600480360360a081101561070157600080fd5b6001600160a01b038235811692602081013590911691810190606081016040820135600160201b81111561073457600080fd5b82018360208201111561074657600080fd5b803590602001918460208302840111600160201b8311171561076757600080fd5b9190808060200260200160405190810160405280939291908181526020018383602002808284376000920191909152509295949360208101935035915050600160201b8111156107b657600080fd5b8201836020820111156107c857600080fd5b803590602001918460208302840111600160201b831117156107e957600080fd5b9190808060200260200160405190810160405280939291908181526020018383602002808284376000920191909152509295949360208101935035915050600160201b81111561083857600080fd5b82018360208201111561084a57600080fd5b803590602001918460018302840111600160201b8311171561086b57600080fd5b91908080601f016020809104026020016040519081016040528093929190818152602001838380828437600092019190915250929550611a07945050505050565b3480156108b857600080fd5b50610688600480360360408110156108cf57600080fd5b50803590602001356001600160a01b0316611d0a565b3480156108f157600080fd5b506106886004803603604081101561090857600080fd5b50803590602001356001600160a01b0316611d71565b34801561092a57600080fd5b506106886004803603602081101561094157600080fd5b5035611dd2565b34801561095457600080fd5b50610688611e20565b34801561096957600080fd5b506103f2611e7f565b34801561097e57600080fd5b506102ab611e8f565b34801561099357600080fd5b50610ab7600480360360408110156109aa57600080fd5b810190602081018135600160201b8111156109c457600080fd5b8201836020820111156109d657600080fd5b803590602001918460208302840111600160201b831117156109f757600080fd5b9190808060200260200160405190810160405280939291908181526020018383602002808284376000920191909152509295949360208101935035915050600160201b811115610a4657600080fd5b820183602082011115610a5857600080fd5b803590602001918460208302840111600160201b83111715610a7957600080fd5b919080806020026020016040519081016040528093929190818152602001838360200280828437600092019190915250929550611e96945050505050565b60408051602080825283518183015283519192839290830191858101910280838360005b83811015610af3578181015183820152602001610adb565b505050509050019250505060405180910390f35b348015610b1357600080fd5b5061068860048036036020811015610b2a57600080fd5b5035611f82565b348015610b3d57600080fd5b5061068860048036036020811015610b5457600080fd5b810190602081018135600160201b811115610b6e57600080fd5b820183602082011115610b8057600080fd5b803590602001918460018302840111600160201b83111715610ba157600080fd5b91908080601f016020809104026020016040519081016040528093929190818152602001838380828437600092019190915250929550611fd0945050505050565b348015610bee57600080fd5b5061032a61202c565b348015610c0357600080fd5b506102ab612035565b348015610c1857600080fd5b5061068860048036036060811015610c2f57600080fd5b6001600160a01b038235169190810190604081016020820135600160201b811115610c5957600080fd5b820183602082011115610c6b57600080fd5b803590602001918460208302840111600160201b83111715610c8c57600080fd5b9190808060200260200160405190810160405280939291908181526020018383602002808284376000920191909152509295949360208101935035915050600160201b811115610cdb57600080fd5b820183602082011115610ced57600080fd5b803590602001918460208302840111600160201b83111715610d0e57600080fd5b91908080602002602001604051908101604052809392919081815260200183836020028082843760009201919091525092955061203c945050505050565b348015610d5857600080fd5b5061068860048036036080811015610d6f57600080fd5b6001600160a01b038235169160208101359160408201359190810190608081016060820135600160201b811115610da557600080fd5b820183602082011115610db757600080fd5b803590602001918460018302840111600160201b83111715610dd857600080fd5b91908080601f0160208091040260200160405190810160405280939291908181526020018383808284376000920191909152509295506120b5945050505050565b348015610e2557600080fd5b50610688612116565b348015610e3a57600080fd5b506103f260048036036040811015610e5157600080fd5b5080359060200135612173565b348015610e6a57600080fd5b5061032a60048036036040811015610e8157600080fd5b50803590602001356001600160a01b0316612192565b348015610ea357600080fd5b5061068860048036036020811015610eba57600080fd5b810190602081018135600160201b811115610ed457600080fd5b820183602082011115610ee657600080fd5b803590602001918460018302840111600160201b83111715610f0757600080fd5b91908080601f0160208091040260200160405190810160405280939291908181526020018383808284376000920191909152509295506121aa945050505050565b348015610f5457600080fd5b5061068860048036036040811015610f6b57600080fd5b810190602081018135600160201b811115610f8557600080fd5b820183602082011115610f9757600080fd5b803590602001918460208302840111600160201b83111715610fb857600080fd5b9190808060200260200160405190810160405280939291908181526020018383602002808284376000920191909152509295949360208101935035915050600160201b81111561100757600080fd5b82018360208201111561101957600080fd5b803590602001918460208302840111600160201b8311171561103a57600080fd5b919080806020026020016040519081016040528093929190818152602001838360200280828437600092019190915250929550612206945050505050565b610688600480360360a081101561108e57600080fd5b8135916001600160a01b036020820135169160408201359160608101359181019060a081016080820135600160201b8111156110c957600080fd5b8201836020820111156110db57600080fd5b803590602001918460018302840111600160201b831117156110fc57600080fd5b91908080601f01602080910402602001604051908101604052809392919081815260200183838082843760009201919091525092955061224a945050505050565b34801561114957600080fd5b506102ab612481565b34801561115e57600080fd5b506106886004803603604081101561117557600080fd5b506001600160a01b0381351690602001351515612486565b34801561119957600080fd5b50610368600480360360208110156111b057600080fd5b5035612575565b3480156111c357600080fd5b50610688600480360360a08110156111da57600080fd5b8135916001600160a01b036020820135169160408201359160608101359181019060a081016080820135600160201b81111561121557600080fd5b82018360208201111561122757600080fd5b803590602001918460018302840111600160201b8311171561124857600080fd5b91908080601f016020809104026020016040519081016040528093929190818152602001838380828437600092019190915250929550612611945050505050565b34801561129557600080fd5b506102ab600480360360208110156112ac57600080fd5b5035612778565b3480156112bf57600080fd5b506102ab600480360360208110156112d657600080fd5b503561278b565b3480156112e957600080fd5b506102ab6127a2565b3480156112fe57600080fd5b506106886004803603604081101561131557600080fd5b50803590602001356001600160a01b03166127b4565b34801561133757600080fd5b506106886004803603604081101561134e57600080fd5b50803590602001356001600160a01b031661280d565b34801561137057600080fd5b506102ab6128e0565b34801561138557600080fd5b506106886004803603602081101561139c57600080fd5b50356001600160a01b03166128f2565b3480156113b857600080fd5b5061036861295d565b3480156113cd57600080fd5b5061032a600480360360408110156113e457600080fd5b506001600160a01b03813581169160200135166129f4565b34801561140857600080fd5b506106886004803603608081101561141f57600080fd5b506001600160a01b03813581169160208101359091169060408101359060600135612a22565b34801561145157600080fd5b50610688600480360360a081101561146857600080fd5b6001600160a01b03823581169260208101359091169160408201359160608101359181019060a081016080820135600160201b8111156114a757600080fd5b8201836020820111156114b957600080fd5b803590602001918460018302840111600160201b831117156114da57600080fd5b91908080601f016020809104026020016040519081016040528093929190818152602001838380828437600092019190915250929550612b4e945050505050565b34801561152757600080fd5b506106886004803603606081101561153e57600080fd5b506001600160a01b038135169060208101359060400135612d19565b34801561156657600080fd5b506106886004803603602081101561157d57600080fd5b810190602081018135600160201b81111561159757600080fd5b8201836020820111156115a957600080fd5b803590602001918460018302840111600160201b831117156115ca57600080fd5b91908080601f016020809104026020016040519081016040528093929190818152602001838380828437600092019190915250929550612d8d945050505050565b6000611618610191612e38565b90505b90565b60006001600160a01b0383166116655760405162461bcd60e51b815260040180806020018281038252602b815260200180614b7e602b913960400191505060405180910390fd5b5060008181526097602090815260408083206001600160a01b03861684529091529020545b92915050565b6001600160e01b03191660009081526065602052604090205460ff1690565b610197805460408051602060026001851615610100026000190190941693909304601f810184900484028201840190925281815260609361168a939192909183018282801561173f5780601f106117145761010080835404028352916020019161173f565b820191906000526020600020905b81548152906001019060200180831161172257829003601f168201915b505050600086815261019860209081526040918290208054835160026001831615610100026000190190921691909104601f8101849004840282018401909452838152945092508301828280156117d75780601f106117ac576101008083540402835291602001916117d7565b820191906000526020600020905b8154815290600101906020018083116117ba57829003601f168201915b5050505050612e3c565b610192546001600160a01b031681565b60006117fd828461161e565b15806118235750600083815261019960205260409020546001600160a01b038381169116145b156118305750600061168a565b600083815261019a60205260409020546001600160a01b0316156118e857600083815261019b602090815260408083205461019a8352928190205481516370a0823160e01b81526001600160a01b038781166004830152925192909116926370a0823192602480840193829003018186803b1580156118ae57600080fd5b505afa1580156118c2573d6000803e3d6000fd5b505050506040513d60208110156118d857600080fd5b505110156118e85750600161168a565b600083815261019c6020526040902054158015906119145750600083815261019c602052604090205442115b1561168a5750600161168a565b61019b6020526000908152604090205481565b600090815261019a602090815260408083205461019b83528184205461019c9093529220546001600160a01b0390921692909190565b611989600080516020614dad833981519152611984612e78565b612192565b6119c45760405162461bcd60e51b8152600401808060200182810382526038815260200180614d2b6038913960400191505060405180910390fd5b6119d084848484612e7c565b50505050565b60009081526033602052604090206002015490565b61019a602052600090815260409020546001600160a01b031681565b8151835114611a475760405162461bcd60e51b8152600401808060200182810382526028815260200180614ebd6028913960400191505060405180910390fd5b6001600160a01b038416611a8c5760405162461bcd60e51b8152600401808060200182810382526025815260200180614c4c6025913960400191505060405180910390fd5b611a94612e78565b6001600160a01b0316856001600160a01b03161480611abf5750611abf85611aba612e78565b6129f4565b611afa5760405162461bcd60e51b8152600401808060200182810382526032815260200180614c716032913960400191505060405180910390fd5b6000611b04612e78565b9050611b148187878787876130ca565b60005b8451811015611c1a576000858281518110611b2e57fe5b602002602001015190506000858381518110611b4657fe5b60200260200101519050611bb3816040518060600160405280602a8152602001614d63602a91396097600086815260200190815260200160002060008d6001600160a01b03166001600160a01b03168152602001908152602001600020546131849092919063ffffffff16565b60008381526097602090815260408083206001600160a01b038e811685529252808320939093558a1681522054611bea908261321b565b60009283526097602090815260408085206001600160a01b038c1686529091529092209190915550600101611b17565b50846001600160a01b0316866001600160a01b0316826001600160a01b03167f4a39dc06d4c0dbc64b70af90fd698a233a518aa5d07e595d983b8c0526c8f7fb8787604051808060200180602001838103835285818151815260200191508051906020019060200280838360005b83811015611ca0578181015183820152602001611c88565b50505050905001838103825284818151815260200191508051906020019060200280838360005b83811015611cdf578181015183820152602001611cc7565b5050505090500194505050505060405180910390a4611d02818787878787613275565b505050505050565b600082815260336020526040902060020154611d2890611984612e78565b611d635760405162461bcd60e51b815260040180806020018281038252602f815260200180614b4f602f913960400191505060405180910390fd5b611d6d82826134eb565b5050565b611d79612e78565b6001600160a01b0316816001600160a01b031614611dc85760405162461bcd60e51b815260040180806020018281038252602f815260200180614f06602f913960400191505060405180910390fd5b611d6d8282613554565b611ddf6000611984612e78565b611e1a5760405162461bcd60e51b8152600401808060200182810382526037815260200180614ca36037913960400191505060405180910390fd5b61019355565b611e3a600080516020614d8d833981519152611984612e78565b611e755760405162461bcd60e51b815260040180806020018281038252603b815260200180614dcd603b913960400191505060405180910390fd5b611e7d6135bd565b565b610195546001600160a01b031681565b6101935481565b60608151835114611ed85760405162461bcd60e51b8152600401808060200182810382526029815260200180614e946029913960400191505060405180910390fd5b6000835167ffffffffffffffff81118015611ef257600080fd5b50604051908082528060200260200182016040528015611f1c578160200160208202803683370190505b50905060005b8451811015611f7a57611f5b858281518110611f3a57fe5b6020026020010151858381518110611f4e57fe5b602002602001015161161e565b828281518110611f6757fe5b6020908102919091010152600101611f22565b509392505050565b611f8f6000611984612e78565b611fca5760405162461bcd60e51b8152600401808060200182810382526037815260200180614ca36037913960400191505060405180910390fd5b61019455565b611fdd6000611984612e78565b6120185760405162461bcd60e51b8152600401808060200182810382526037815260200180614ca36037913960400191505060405180910390fd5b8051611d6d90610197906020840190614984565b60fb5460ff1690565b6101945481565b612044612e78565b6001600160a01b0316836001600160a01b0316148061206a575061206a83611aba612e78565b6120a55760405162461bcd60e51b8152600401808060200182810382526029815260200180614bcd6029913960400191505060405180910390fd5b6120b083838361365d565b505050565b6120cf600080516020614dad833981519152611984612e78565b61210a5760405162461bcd60e51b8152600401808060200182810382526038815260200180614d2b6038913960400191505060405180910390fd5b6119d0848484846138cb565b612130600080516020614d8d833981519152611984612e78565b61216b5760405162461bcd60e51b8152600401808060200182810382526039815260200180614e086039913960400191505060405180910390fd5b611e7d6139cc565b600082815260336020526040812061218b9083613a4f565b9392505050565b600082815260336020526040812061218b9083613a5b565b6121b76000611984612e78565b6121f25760405162461bcd60e51b8152600401808060200182810382526037815260200180614ca36037913960400191505060405180910390fd5b8051611d6d90610196906020840190614984565b60005b82518110156120b05761224283828151811061222157fe5b602002602001015183838151811061223557fe5b602002602001015161280d565b600101612209565b6101935434811115612299576040805162461bcd60e51b8152602060048201526013602482015272139bdd08195b9bdd59da08115512081cd95b9d606a1b604482015290519081900360640190fd5b82156122e6574283116122e6576040805162461bcd60e51b815260206004820152601060248201526f151a5b59481a5b881d1a19481c185cdd60821b604482015290519081900360640190fd5b8315612339576001600160a01b038516612339576040805162461bcd60e51b815260206004820152600f60248201526e496e76616c6964204164647265737360881b604482015290519081900360640190fd5b6000612346610191612e38565b600081815261019860209081526040909120855192935061236b929091860190614984565b50600081815261019a6020908152604080832080546001600160a01b038b166001600160a01b03199182161790915561019b835281842089905561019c83528184208890556101999092529091208054909116331790556123e46123cd612e78565b8289604051806020016040528060008152506138cb565b6123ec613a70565b610195546040516001600160a01b039091169083156108fc029084906000818181858888f19350505050158015612427573d6000803e3d6000fd5b508134111561247857612438612e78565b6001600160a01b03166108fc61244e3485613a7b565b6040518115909202916000818181858888f19350505050158015612476573d6000803e3d6000fd5b505b50505050505050565b600081565b816001600160a01b0316612498612e78565b6001600160a01b031614156124de5760405162461bcd60e51b8152600401808060200182810382526029815260200180614e416029913960400191505060405180910390fd5b80609860006124eb612e78565b6001600160a01b03908116825260208083019390935260409182016000908120918716808252919093529120805460ff19169215159290921790915561252f612e78565b6001600160a01b03167f17307eab39ab6107e8899845ad3d59bd9653f200f220920489ca2b5937696c318360405180821515815260200191505060405180910390a35050565b6101986020908152600091825260409182902080548351601f6002600019610100600186161502019093169290920491820184900484028101840190945280845290918301828280156126095780601f106125de57610100808354040283529160200191612609565b820191906000526020600020905b8154815290600101906020018083116125ec57829003601f168201915b505050505081565b811561265e5742821161265e576040805162461bcd60e51b815260206004820152601060248201526f151a5b59481a5b881d1a19481c185cdd60821b604482015290519081900360640190fd5b82156126b1576001600160a01b0384166126b1576040805162461bcd60e51b815260206004820152600f60248201526e496e76616c6964204164647265737360881b604482015290519081900360640190fd5b610194546126dc6126c0612e78565b61019554610192546001600160a01b0390811692911684613ad8565b60006126e9610191612e38565b600081815261019860209081526040909120855192935061270e929091860190614984565b50600081815261019a6020908152604080832080546001600160a01b038b166001600160a01b03199182161790915561019b835281842089905561019c83528184208890556101999092529091208054909116331790556127706123cd612e78565b612478613a70565b61019c6020526000908152604090205481565b600081815260336020526040812061168a90613b32565b600080516020614dad83398151915281565b6000828152603360205260409020600201546127d290611984612e78565b611dc85760405162461bcd60e51b8152600401808060200182810382526030815260200180614c1c6030913960400191505060405180910390fd5b61281782826117f1565b61285f576040805162461bcd60e51b815260206004820152601460248201527310d85b89dd08189d5c9b881d1bdad95b881e595d60621b604482015290519081900360640190fd5b61288b7f3c11d16cbaffd01df69ce1c404f6340ee057498f5f00246190ea54220576a848611984612e78565b6128d4576040805162461bcd60e51b81526020600482015260156024820152744d7573742068617665206275726e657220726f6c6560581b604482015290519081900360640190fd5b611d6d81836001613b3d565b600080516020614d8d83398151915281565b6128ff6000611984612e78565b61293a5760405162461bcd60e51b8152600401808060200182810382526037815260200180614ca36037913960400191505060405180910390fd5b61019580546001600160a01b0319166001600160a01b0392909216919091179055565b6101968054604080516020601f60026000196101006001881615020190951694909404938401819004810282018101909252828152606093909290918301828280156129ea5780601f106129bf576101008083540402835291602001916129ea565b820191906000526020600020905b8154815290600101906020018083116129cd57829003601f168201915b5050505050905090565b6001600160a01b03918216600090815260986020908152604080832093909416825291909152205460ff1690565b600054610100900460ff1680612a3b5750612a3b613c70565b80612a49575060005460ff16155b612a845760405162461bcd60e51b815260040180806020018281038252602e815260200180614cda602e913960400191505060405180910390fd5b600054610100900460ff16158015612aaf576000805460ff1961ff0019909116610100171660011790555b612ac760405180602001604052806000815250612d8d565b60408051808201909152600780825266697066733a2f2f60c81b6020909201918252612af69161019791614984565b5061019280546001600160a01b038088166001600160a01b0319928316179092556101958054928716929091169190911790556101938390556101948290558015612b47576000805461ff00191690555b5050505050565b6001600160a01b038416612b935760405162461bcd60e51b8152600401808060200182810382526025815260200180614c4c6025913960400191505060405180910390fd5b612b9b612e78565b6001600160a01b0316856001600160a01b03161480612bc15750612bc185611aba612e78565b612bfc5760405162461bcd60e51b8152600401808060200182810382526029815260200180614bcd6029913960400191505060405180910390fd5b6000612c06612e78565b9050612c26818787612c1788613c81565b612c2088613c81565b876130ca565b612c6d836040518060600160405280602a8152602001614d63602a913960008781526097602090815260408083206001600160a01b038d1684529091529020549190613184565b60008581526097602090815260408083206001600160a01b038b81168552925280832093909355871681522054612ca4908461321b565b60008581526097602090815260408083206001600160a01b03808b168086529184529382902094909455805188815291820187905280518a8416938616927fc3d58168c5ae7397731d063d5bbf3d657854427343f4c083240f7aacaa2d0f6292908290030190a4611d02818787878787613cc6565b612d21612e78565b6001600160a01b0316836001600160a01b03161480612d475750612d4783611aba612e78565b612d825760405162461bcd60e51b8152600401808060200182810382526029815260200180614bcd6029913960400191505060405180910390fd5b6120b0838383613b3d565b600054610100900460ff1680612da65750612da6613c70565b80612db4575060005460ff16155b612def5760405162461bcd60e51b815260040180806020018281038252602e815260200180614cda602e913960400191505060405180910390fd5b600054610100900460ff16158015612e1a576000805460ff1961ff0019909116610100171660011790555b612e2382613e37565b8015611d6d576000805461ff00191690555050565b5490565b606061218b8383604051806020016040528060008152506040518060200160405280600081525060405180602001604052806000815250613f06565b3390565b6001600160a01b038416612ec15760405162461bcd60e51b8152600401808060200182810382526021815260200180614ee56021913960400191505060405180910390fd5b8151835114612f015760405162461bcd60e51b8152600401808060200182810382526028815260200180614ebd6028913960400191505060405180910390fd5b6000612f0b612e78565b9050612f1c816000878787876130ca565b60005b8451811015612fe057612f9760976000878481518110612f3b57fe5b602002602001015181526020019081526020016000206000886001600160a01b03166001600160a01b0316815260200190815260200160002054858381518110612f8157fe5b602002602001015161321b90919063ffffffff16565b60976000878481518110612fa757fe5b602090810291909101810151825281810192909252604090810160009081206001600160a01b038b168252909252902055600101612f1f565b50846001600160a01b031660006001600160a01b0316826001600160a01b03167f4a39dc06d4c0dbc64b70af90fd698a233a518aa5d07e595d983b8c0526c8f7fb8787604051808060200180602001838103835285818151815260200191508051906020019060200280838360005b8381101561306757818101518382015260200161304f565b50505050905001838103825284818151815260200191508051906020019060200280838360005b838110156130a657818101518382015260200161308e565b5050505090500194505050505060405180910390a4612b4781600087878787613275565b6001600160a01b038516158015906130ea57506001600160a01b03841615155b15611d025760005b83518110156124785761310b85858381518110611f4e57fe5b15801561312b575082818151811061311f57fe5b60200260200101516001145b61317c576040805162461bcd60e51b815260206004820181905260248201527f557365722063616e206f776e206f6e6c79203120746f6b656e20706572206964604482015290519081900360640190fd5b6001016130f2565b600081848411156132135760405162461bcd60e51b81526004018080602001828103825283818151815260200191508051906020019080838360005b838110156131d85781810151838201526020016131c0565b50505050905090810190601f1680156132055780820380516001836020036101000a031916815260200191505b509250505060405180910390fd5b505050900390565b60008282018381101561218b576040805162461bcd60e51b815260206004820152601b60248201527f536166654d6174683a206164646974696f6e206f766572666c6f770000000000604482015290519081900360640190fd5b613287846001600160a01b031661412c565b15611d0257836001600160a01b031663bc197c8187878686866040518663ffffffff1660e01b815260040180866001600160a01b03168152602001856001600160a01b03168152602001806020018060200180602001848103845287818151815260200191508051906020019060200280838360005b838110156133155781810151838201526020016132fd565b50505050905001848103835286818151815260200191508051906020019060200280838360005b8381101561335457818101518382015260200161333c565b50505050905001848103825285818151815260200191508051906020019080838360005b83811015613390578181015183820152602001613378565b50505050905090810190601f1680156133bd5780820380516001836020036101000a031916815260200191505b5098505050505050505050602060405180830381600087803b1580156133e257600080fd5b505af192505050801561340757506040513d602081101561340257600080fd5b505160015b61349c57613413614a2b565b8061341e5750613465565b60405162461bcd60e51b81526020600482018181528351602484015283518493919283926044019190850190808383600083156131d85781810151838201526020016131c0565b60405162461bcd60e51b8152600401808060200182810382526034815260200180614ad16034913960400191505060405180910390fd5b6001600160e01b0319811663bc197c8160e01b146124785760405162461bcd60e51b8152600401808060200182810382526028815260200180614b276028913960400191505060405180910390fd5b60008281526033602052604090206135039082614132565b15611d6d57613510612e78565b6001600160a01b0316816001600160a01b0316837f2f8788117e7eff1d82e926ec794901d17c78024a50270940304540a733656f0d60405160405180910390a45050565b600082815260336020526040902061356c9082614147565b15611d6d57613579612e78565b6001600160a01b0316816001600160a01b0316837ff6391f5c32d9c69d2a47ea670b442974b53935d1edc7fd64eb21e047a839171b60405160405180910390a45050565b6135c561202c565b61360d576040805162461bcd60e51b815260206004820152601460248201527314185d5cd8589b194e881b9bdd081c185d5cd95960621b604482015290519081900360640190fd5b60fb805460ff191690557f5db9ee0a495bf2e6ff9c91a7834c1ba4fdd244a5e8aa4e537bd38aeae4b073aa613640612e78565b604080516001600160a01b039092168252519081900360200190a1565b6001600160a01b0383166136a25760405162461bcd60e51b8152600401808060200182810382526023815260200180614d086023913960400191505060405180910390fd5b80518251146136e25760405162461bcd60e51b8152600401808060200182810382526028815260200180614ebd6028913960400191505060405180910390fd5b60006136ec612e78565b905061370c818560008686604051806020016040528060008152506130ca565b60005b83518110156137ea576137a183828151811061372757fe5b6020026020010151604051806060016040528060248152602001614ba9602491396097600088868151811061375857fe5b602002602001015181526020019081526020016000206000896001600160a01b03166001600160a01b03168152602001908152602001600020546131849092919063ffffffff16565b609760008684815181106137b157fe5b602090810291909101810151825281810192909252604090810160009081206001600160a01b038a16825290925290205560010161370f565b5060006001600160a01b0316846001600160a01b0316826001600160a01b03167f4a39dc06d4c0dbc64b70af90fd698a233a518aa5d07e595d983b8c0526c8f7fb8686604051808060200180602001838103835285818151815260200191508051906020019060200280838360005b83811015613871578181015183820152602001613859565b50505050905001838103825284818151815260200191508051906020019060200280838360005b838110156138b0578181015183820152602001613898565b5050505090500194505050505060405180910390a450505050565b6001600160a01b0384166139105760405162461bcd60e51b8152600401808060200182810382526021815260200180614ee56021913960400191505060405180910390fd5b600061391a612e78565b905061392c81600087612c1788613c81565b60008481526097602090815260408083206001600160a01b0389168452909152902054613959908461321b565b60008581526097602090815260408083206001600160a01b03808b16808652918452828520959095558151898152928301889052815190948616927fc3d58168c5ae7397731d063d5bbf3d657854427343f4c083240f7aacaa2d0f6292908290030190a4612b4781600087878787613cc6565b6139d461202c565b15613a19576040805162461bcd60e51b815260206004820152601060248201526f14185d5cd8589b194e881c185d5cd95960821b604482015290519081900360640190fd5b60fb805460ff191660011790557f62e78cea01bee320cd4e420270b5ea74000d11b0c9f74754ebdbfc544b05a258613640612e78565b600061218b838361415c565b600061218b836001600160a01b0384166141c0565b611e7d6101916141d8565b600082821115613ad2576040805162461bcd60e51b815260206004820152601e60248201527f536166654d6174683a207375627472616374696f6e206f766572666c6f770000604482015290519081900360640190fd5b50900390565b604080516001600160a01b0380861660248301528416604482015260648082018490528251808303909101815260849091019091526020810180516001600160e01b03166323b872dd60e01b1790526119d09085906141e1565b600061168a82612e38565b6001600160a01b038316613b825760405162461bcd60e51b8152600401808060200182810382526023815260200180614d086023913960400191505060405180910390fd5b6000613b8c612e78565b9050613bbc81856000613b9e87613c81565b613ba787613c81565b604051806020016040528060008152506130ca565b613c0382604051806060016040528060248152602001614ba96024913960008681526097602090815260408083206001600160a01b038b1684529091529020549190613184565b60008481526097602090815260408083206001600160a01b03808a16808652918452828520959095558151888152928301879052815193949093908616927fc3d58168c5ae7397731d063d5bbf3d657854427343f4c083240f7aacaa2d0f6292908290030190a450505050565b6000613c7b3061412c565b15905090565b60408051600180825281830190925260609160009190602080830190803683370190505090508281600081518110613cb557fe5b602090810291909101015292915050565b613cd8846001600160a01b031661412c565b15611d0257836001600160a01b031663f23a6e6187878686866040518663ffffffff1660e01b815260040180866001600160a01b03168152602001856001600160a01b0316815260200184815260200183815260200180602001828103825283818151815260200191508051906020019080838360005b83811015613d67578181015183820152602001613d4f565b50505050905090810190601f168015613d945780820380516001836020036101000a031916815260200191505b509650505050505050602060405180830381600087803b158015613db757600080fd5b505af1925050508015613ddc57506040513d6020811015613dd757600080fd5b505160015b613de857613413614a2b565b6001600160e01b0319811663f23a6e6160e01b146124785760405162461bcd60e51b8152600401808060200182810382526028815260200180614b276028913960400191505060405180910390fd5b600054610100900460ff1680613e505750613e50613c70565b80613e5e575060005460ff16155b613e995760405162461bcd60e51b815260040180806020018281038252602e815260200180614cda602e913960400191505060405180910390fd5b600054610100900460ff16158015613ec4576000805460ff1961ff0019909116610100171660011790555b613ecc614292565b613ed4614292565b613edc614334565b613ee5826143d1565b613eed614292565b613ef5614487565b613efd614292565b612e2382614532565b805182518451865188516060948a948a948a948a948a94600094919092019092019091010167ffffffffffffffff81118015613f4157600080fd5b506040519080825280601f01601f191660200182016040528015613f6c576020820181803683370190505b509050806000805b8851811015613fc557888181518110613f8957fe5b602001015160f81c60f81b838380600101945081518110613fa657fe5b60200101906001600160f81b031916908160001a905350600101613f74565b5060005b875181101561401a57878181518110613fde57fe5b602001015160f81c60f81b838380600101945081518110613ffb57fe5b60200101906001600160f81b031916908160001a905350600101613fc9565b5060005b865181101561406f5786818151811061403357fe5b602001015160f81c60f81b83838060010194508151811061405057fe5b60200101906001600160f81b031916908160001a90535060010161401e565b5060005b85518110156140c45785818151811061408857fe5b602001015160f81c60f81b8383806001019450815181106140a557fe5b60200101906001600160f81b031916908160001a905350600101614073565b5060005b8451811015614119578481815181106140dd57fe5b602001015160f81c60f81b8383806001019450815181106140fa57fe5b60200101906001600160f81b031916908160001a9053506001016140c8565b50909d9c50505050505050505050505050565b3b151590565b600061218b836001600160a01b038416614605565b600061218b836001600160a01b03841661464f565b8154600090821061419e5760405162461bcd60e51b8152600401808060200182810382526022815260200180614b056022913960400191505060405180910390fd5b8260000182815481106141ad57fe5b9060005260206000200154905092915050565b60009081526001919091016020526040902054151590565b80546001019055565b6000614236826040518060400160405280602081526020017f5361666545524332303a206c6f772d6c6576656c2063616c6c206661696c6564815250856001600160a01b03166147159092919063ffffffff16565b8051909150156120b05780806020019051602081101561425557600080fd5b50516120b05760405162461bcd60e51b815260040180806020018281038252602a815260200180614e6a602a913960400191505060405180910390fd5b600054610100900460ff16806142ab57506142ab613c70565b806142b9575060005460ff16155b6142f45760405162461bcd60e51b815260040180806020018281038252602e815260200180614cda602e913960400191505060405180910390fd5b600054610100900460ff1615801561431f576000805460ff1961ff0019909116610100171660011790555b8015614331576000805461ff00191690555b50565b600054610100900460ff168061434d575061434d613c70565b8061435b575060005460ff16155b6143965760405162461bcd60e51b815260040180806020018281038252602e815260200180614cda602e913960400191505060405180910390fd5b600054610100900460ff161580156143c1576000805460ff1961ff0019909116610100171660011790555b61431f6301ffc9a760e01b61472c565b600054610100900460ff16806143ea57506143ea613c70565b806143f8575060005460ff16155b6144335760405162461bcd60e51b815260040180806020018281038252602e815260200180614cda602e913960400191505060405180910390fd5b600054610100900460ff1615801561445e576000805460ff1961ff0019909116610100171660011790555b614467826147b0565b614477636cdb3d1360e11b61472c565b612e236303a24d0760e21b61472c565b600054610100900460ff16806144a057506144a0613c70565b806144ae575060005460ff16155b6144e95760405162461bcd60e51b815260040180806020018281038252602e815260200180614cda602e913960400191505060405180910390fd5b600054610100900460ff16158015614514576000805460ff1961ff0019909116610100171660011790555b60fb805460ff191690558015614331576000805461ff001916905550565b600054610100900460ff168061454b575061454b613c70565b80614559575060005460ff16155b6145945760405162461bcd60e51b815260040180806020018281038252602e815260200180614cda602e913960400191505060405180910390fd5b600054610100900460ff161580156145bf576000805460ff1961ff0019909116610100171660011790555b6145d160006145cc612e78565b611d63565b6145eb600080516020614dad8339815191526145cc612e78565b612e23600080516020614d8d8339815191526145cc612e78565b600061461183836141c0565b6146475750815460018181018455600084815260208082209093018490558454848252828601909352604090209190915561168a565b50600061168a565b6000818152600183016020526040812054801561470b578354600019808301919081019060009087908390811061468257fe5b906000526020600020015490508087600001848154811061469f57fe5b6000918252602080832090910192909255828152600189810190925260409020908401905586548790806146cf57fe5b6001900381819060005260206000200160009055905586600101600087815260200190815260200160002060009055600194505050505061168a565b600091505061168a565b606061472484846000856147c3565b949350505050565b6001600160e01b0319808216141561478b576040805162461bcd60e51b815260206004820152601c60248201527f4552433136353a20696e76616c696420696e7465726661636520696400000000604482015290519081900360640190fd5b6001600160e01b0319166000908152606560205260409020805460ff19166001179055565b8051611d6d906099906020840190614984565b6060824710156148045760405162461bcd60e51b8152600401808060200182810382526026815260200180614bf66026913960400191505060405180910390fd5b61480d8561412c565b61485e576040805162461bcd60e51b815260206004820152601d60248201527f416464726573733a2063616c6c20746f206e6f6e2d636f6e7472616374000000604482015290519081900360640190fd5b600080866001600160a01b031685876040518082805190602001908083835b6020831061489c5780518252601f19909201916020918201910161487d565b6001836020036101000a03801982511681845116808217855250505050505090500191505060006040518083038185875af1925050503d80600081146148fe576040519150601f19603f3d011682016040523d82523d6000602084013e614903565b606091505b509150915061491382828661491e565b979650505050505050565b6060831561492d57508161218b565b82511561493d5782518084602001fd5b60405162461bcd60e51b81526020600482018181528451602484015284518593919283926044019190850190808383600083156131d85781810151838201526020016131c0565b828054600181600116156101000203166002900490600052602060002090601f0160209004810192826149ba5760008555614a00565b82601f106149d357805160ff1916838001178555614a00565b82800160010185558215614a00579182015b82811115614a005782518255916020019190600101906149e5565b50614a0c929150614a10565b5090565b5b80821115614a0c5760008155600101614a11565b60e01c90565b600060443d1015614a3b5761161b565b600481823e6308c379a0614a4f8251614a25565b14614a595761161b565b6040513d600319016004823e80513d67ffffffffffffffff8160248401118184111715614a89575050505061161b565b82840192508251915080821115614aa3575050505061161b565b503d83016020828401011115614abb5750505061161b565b601f01601f191681016020016040529150509056fe455243313135353a207472616e7366657220746f206e6f6e2045524331313535526563656976657220696d706c656d656e746572456e756d657261626c655365743a20696e646578206f7574206f6620626f756e6473455243313135353a204552433131353552656365697665722072656a656374656420746f6b656e73416363657373436f6e74726f6c3a2073656e646572206d75737420626520616e2061646d696e20746f206772616e74455243313135353a2062616c616e636520717565727920666f7220746865207a65726f2061646472657373455243313135353a206275726e20616d6f756e7420657863656564732062616c616e6365455243313135353a2063616c6c6572206973206e6f74206f776e6572206e6f7220617070726f766564416464726573733a20696e73756666696369656e742062616c616e636520666f722063616c6c416363657373436f6e74726f6c3a2073656e646572206d75737420626520616e2061646d696e20746f207265766f6b65455243313135353a207472616e7366657220746f20746865207a65726f2061646472657373455243313135353a207472616e736665722063616c6c6572206973206e6f74206f776e6572206e6f7220617070726f766564455243313135355072657365744d696e7465725061757365723a206d75737420686176652061646d696e20726f6c6520746f206d696e74496e697469616c697a61626c653a20636f6e747261637420697320616c726561647920696e697469616c697a6564455243313135353a206275726e2066726f6d20746865207a65726f2061646472657373455243313135355072657365744d696e7465725061757365723a206d7573742068617665206d696e74657220726f6c6520746f206d696e74455243313135353a20696e73756666696369656e742062616c616e636520666f72207472616e7366657265d7a28e3265b37a6474929f336521b332c1681b933f6cb9f3376673440d862a9f2df0fed2c77648de5860a4cc508cd0818c85b8b8a1ab4ceeef8d981c8956a6455243313135355072657365744d696e7465725061757365723a206d75737420686176652070617573657220726f6c6520746f20756e7061757365455243313135355072657365744d696e7465725061757365723a206d75737420686176652070617573657220726f6c6520746f207061757365455243313135353a2073657474696e6720617070726f76616c2073746174757320666f722073656c665361666545524332303a204552433230206f7065726174696f6e20646964206e6f742073756363656564455243313135353a206163636f756e747320616e6420696473206c656e677468206d69736d61746368455243313135353a2069647320616e6420616d6f756e7473206c656e677468206d69736d61746368455243313135353a206d696e7420746f20746865207a65726f2061646472657373416363657373436f6e74726f6c3a2063616e206f6e6c792072656e6f756e636520726f6c657320666f722073656c66a26469706673582212207e66a23891b30ef28032f888a353746f62280b3f0a5a9439d4148e843d3106ca64736f6c63430007060033",
  "immutableReferences": {},
  "source": "// SPDX-License-Identifier: MIT\r\npragma solidity 0.7.6;\r\n\r\nimport \"@openzeppelin/contracts-upgradeable/presets/ERC1155PresetMinterPauserUpgradeable.sol\";\r\nimport \"@openzeppelin/contracts-upgradeable/utils/CountersUpgradeable.sol\";\r\nimport \"@openzeppelin/contracts-upgradeable/math/SafeMathUpgradeable.sol\";\r\nimport \"@openzeppelin/contracts-upgradeable/token/ERC20/IERC20Upgradeable.sol\";\r\nimport \"@openzeppelin/contracts-upgradeable/token/ERC20/SafeERC20Upgradeable.sol\";\r\nimport \"./utils/Strings.sol\";\r\n\r\n/**\r\n * @title Forge Token Protocol\r\n * @notice Mint NFTs with burnable conditions\r\n */\r\n\r\ncontract ForgeToken is ERC1155PresetMinterPauserUpgradeable {\r\n    using CountersUpgradeable for CountersUpgradeable.Counter;\r\n    using SafeERC20Upgradeable for IERC20Upgradeable;\r\n    using SafeMathUpgradeable for uint256;\r\n\r\n    // === V1 State Vars START ===\r\n\r\n    CountersUpgradeable.Counter private _tokenIdTracker;\r\n\r\n    IERC20Upgradeable public zut;\r\n\r\n    uint256 public ethFee;\r\n    uint256 public zutFee;\r\n\r\n    address payable public feeRecipient;\r\n\r\n    string private _contractURI;\r\n    string private _baseURI;\r\n    mapping(uint256 => string) public ipfsHashes;\r\n    mapping(uint256 => address) tokenCreators;\r\n\r\n    // Storing conditions for burn\r\n    mapping(uint256 => address) public tokenMinBalances;\r\n    mapping(uint256 => uint256) public minBalances;\r\n    mapping(uint256 => uint256) public expirations;\r\n\r\n    // === V1 State Vars END ===\r\n\r\n    /**\r\n     * @dev initialize variables, used for upgradeable contracts\r\n     */\r\n    function initialize(\r\n        IERC20Upgradeable _zut,\r\n        address payable _feeRecipient,\r\n        uint256 _ethFee,\r\n        uint256 _zutFee\r\n    ) public initializer {\r\n        ERC1155PresetMinterPauserUpgradeable.initialize(\"\");\r\n        _baseURI = \"ipfs://\";\r\n        zut = _zut;\r\n        feeRecipient = _feeRecipient;\r\n        ethFee = _ethFee;\r\n        zutFee = _zutFee;\r\n    }\r\n\r\n    /**\r\n     * @dev only admin role modifier\r\n     */\r\n    modifier onlyAdmin() {\r\n        require(\r\n            hasRole(DEFAULT_ADMIN_ROLE, _msgSender()),\r\n            \"ERC1155PresetMinterPauser: must have admin role to mint\"\r\n        );\r\n        _;\r\n    }\r\n\r\n    /**\r\n     *** GETTERS ****\r\n     */\r\n\r\n    /**\r\n     * @dev concatenate base uri and ipfs hash of token\r\n     */\r\n    function uri(uint256 tokenId)\r\n        external\r\n        view\r\n        override\r\n        returns (string memory)\r\n    {\r\n        return Strings.strConcat(_baseURI, ipfsHashes[tokenId]);\r\n    }\r\n\r\n    /**\r\n     * @dev tracks current token Id\r\n     */\r\n    function currentTokenId() public view returns (uint256) {\r\n        return _tokenIdTracker.current();\r\n    }\r\n\r\n    /**\r\n     * @dev contract metadata for marketplace usage\r\n     */\r\n    function contractURI() public view returns (string memory) {\r\n        return _contractURI;\r\n    }\r\n\r\n    /**\r\n     * @dev Determine if a token can be burned, \r\n        checking token balances and expiration time\r\n     */\r\n    function canBurn(uint256 tokenId, address user)\r\n        public\r\n        view\r\n        virtual\r\n        returns (bool burnable)\r\n    {\r\n        if (balanceOf(user, tokenId) == 0 || tokenCreators[tokenId] == user)\r\n            return false;\r\n\r\n        // Condition 1: Min Balance of ERC20\r\n        if (tokenMinBalances[tokenId] != address(0)) {\r\n            if (\r\n                IERC20Upgradeable(tokenMinBalances[tokenId]).balanceOf(user) <\r\n                minBalances[tokenId]\r\n            ) return true;\r\n        }\r\n\r\n        // Condition 2: Expiration time\r\n        if (\r\n            expirations[tokenId] > 0 && block.timestamp > expirations[tokenId]\r\n        ) {\r\n            return true;\r\n        }\r\n    }\r\n\r\n    /**\r\n     * @dev easier way to get all details for token burn conditions\r\n     */\r\n    function getConditions(uint256 tokenId)\r\n        public\r\n        view\r\n        returns (\r\n            address token,\r\n            uint256 minAmount,\r\n            uint256 expires\r\n        )\r\n    {\r\n        token = tokenMinBalances[tokenId];\r\n        minAmount = minBalances[tokenId];\r\n        expires = expirations[tokenId];\r\n    }\r\n\r\n    /**\r\n     *** SETTERS ****\r\n     */\r\n\r\n    function increaseTokenId() internal {\r\n        _tokenIdTracker.increment();\r\n    }\r\n\r\n    /**\r\n     * @notice Create NFT Collecions paying with ETH\r\n     */\r\n    function buyWithETH(\r\n        uint256 amountTokens,\r\n        address tokenAddress,\r\n        uint256 minBalance,\r\n        uint256 expiration,\r\n        string memory ipfsHash\r\n    ) external payable virtual {\r\n        // uint256 amountFee = ethFee.mul(amountTokens);\r\n\r\n        uint256 amountFee = ethFee;\r\n\r\n        require(msg.value >= amountFee, \"Not enough ETH sent\");\r\n\r\n        if (expiration > 0)\r\n            require(expiration > block.timestamp, \"Time in the past\");\r\n\r\n        if (minBalance > 0)\r\n            require(tokenAddress != address(0), \"Invalid Address\");\r\n\r\n        uint256 tokenId = _tokenIdTracker.current();\r\n\r\n        // Add token properties and conditions\r\n        ipfsHashes[tokenId] = ipfsHash;\r\n        tokenMinBalances[tokenId] = tokenAddress;\r\n        minBalances[tokenId] = minBalance;\r\n        expirations[tokenId] = expiration;\r\n\r\n        // store token creator\r\n        tokenCreators[tokenId] = msg.sender;\r\n\r\n        // Mint token to user\r\n        _mint(_msgSender(), tokenId, amountTokens, \"\");\r\n\r\n        increaseTokenId();\r\n\r\n        // send ETH to fee recipient\r\n        feeRecipient.transfer(amountFee);\r\n\r\n        // Refund\r\n        if (msg.value > amountFee) {\r\n            _msgSender().transfer(msg.value.sub(amountFee));\r\n        }\r\n    }\r\n\r\n    /**\r\n     * @notice Create NFT Collecions paying with ZUT\r\n     */\r\n    function buyWithZUT(\r\n        uint256 amountTokens,\r\n        address tokenAddress,\r\n        uint256 minBalance,\r\n        uint256 expiration,\r\n        string memory ipfsHash\r\n    ) external virtual {\r\n        if (expiration > 0)\r\n            require(expiration > block.timestamp, \"Time in the past\");\r\n\r\n        if (minBalance > 0)\r\n            require(tokenAddress != address(0), \"Invalid Address\");\r\n\r\n        // uint256 amountFee = zutFee.mul(amountTokens);\r\n\r\n        uint256 amountFee = zutFee;\r\n\r\n        // Collect fees in ZUT token\r\n        zut.safeTransferFrom(_msgSender(), feeRecipient, amountFee);\r\n\r\n        uint256 tokenId = _tokenIdTracker.current();\r\n\r\n        // Add token properties and conditions\r\n        ipfsHashes[tokenId] = ipfsHash;\r\n        tokenMinBalances[tokenId] = tokenAddress;\r\n        minBalances[tokenId] = minBalance;\r\n        expirations[tokenId] = expiration;\r\n\r\n        // store token creator\r\n        tokenCreators[tokenId] = msg.sender;\r\n\r\n        // Mint token to user\r\n        _mint(_msgSender(), tokenId, amountTokens, \"\");\r\n\r\n        increaseTokenId();\r\n    }\r\n\r\n    /**\r\n     * @notice Burn a NFT token if certain conditions are met\r\n     */\r\n    function burnToken(uint256 tokenId, address user) public {\r\n        require(canBurn(tokenId, user), \"Can't burn token yet\");\r\n        require(\r\n            hasRole(keccak256(\"BURNER_ROLE\"), _msgSender()),\r\n            \"Must have burner role\"\r\n        );\r\n\r\n        _burn(user, tokenId, 1);\r\n    }\r\n\r\n    /**\r\n     * @notice Burn NFT tokens in a batch transaction\r\n     */\r\n    function burnTokenBatch(uint256[] memory tokenIds, address[] memory users)\r\n        public\r\n    {\r\n        for (uint256 i = 0; i < tokenIds.length; i++) {\r\n            burnToken(tokenIds[i], users[i]);\r\n        }\r\n    }\r\n\r\n    function _beforeTokenTransfer(\r\n        address operator,\r\n        address from,\r\n        address to,\r\n        uint256[] memory ids,\r\n        uint256[] memory amounts,\r\n        bytes memory data\r\n    ) internal override {\r\n        // when its not minting or burning\r\n        if (from != address(0) && to != address(0))\r\n            for (uint256 i = 0; i < ids.length; i++) {\r\n                require(\r\n                    balanceOf(to, ids[i]) == 0 && amounts[i] == 1,\r\n                    \"User can own only 1 token per id\"\r\n                );\r\n            }\r\n    }\r\n\r\n    /**\r\n     *** ADMIN ****\r\n     */\r\n\r\n    function setContractURI(string memory ipfsUrl) external onlyAdmin {\r\n        _contractURI = ipfsUrl;\r\n    }\r\n\r\n    function setBaseURI(string memory baseURI) external onlyAdmin {\r\n        _baseURI = baseURI;\r\n    }\r\n\r\n    function setETHFee(uint256 _ethFee) external onlyAdmin {\r\n        ethFee = _ethFee;\r\n    }\r\n\r\n    function setZUTFee(uint256 _zutFee) external onlyAdmin {\r\n        zutFee = _zutFee;\r\n    }\r\n\r\n    function setFeeRecipient(address payable _feeRecipient) external onlyAdmin {\r\n        feeRecipient = _feeRecipient;\r\n    }\r\n}\r\n",
  "sourcePath": "E:/cc/2021/03/nfg_forge/NFTForge/contracts/ForgeToken.sol",
  "compiler": {
    "name": "solc",
    "version": "0.7.6+commit.7338295f.Emscripten.clang"
  },
  "schemaVersion": "3.3.4",
  "updatedAt": "2021-04-20T15:14:24.645Z",
  "networkType": "ethereum",
  "devdoc": {
    "kind": "dev",
    "methods": {
      "balanceOf(address,uint256)": {
        "details": "See {IERC1155-balanceOf}. Requirements: - `account` cannot be the zero address."
      },
      "balanceOfBatch(address[],uint256[])": {
        "details": "See {IERC1155-balanceOfBatch}. Requirements: - `accounts` and `ids` must have the same length."
      },
      "canBurn(uint256,address)": {
        "details": "Determine if a token can be burned,  checking token balances and expiration time"
      },
      "contractURI()": {
        "details": "contract metadata for marketplace usage"
      },
      "currentTokenId()": {
        "details": "tracks current token Id"
      },
      "getConditions(uint256)": {
        "details": "easier way to get all details for token burn conditions"
      },
      "getRoleAdmin(bytes32)": {
        "details": "Returns the admin role that controls `role`. See {grantRole} and {revokeRole}. To change a role's admin, use {_setRoleAdmin}."
      },
      "getRoleMember(bytes32,uint256)": {
        "details": "Returns one of the accounts that have `role`. `index` must be a value between 0 and {getRoleMemberCount}, non-inclusive. Role bearers are not sorted in any particular way, and their ordering may change at any point. WARNING: When using {getRoleMember} and {getRoleMemberCount}, make sure you perform all queries on the same block. See the following https://forum.openzeppelin.com/t/iterating-over-elements-on-enumerableset-in-openzeppelin-contracts/2296[forum post] for more information."
      },
      "getRoleMemberCount(bytes32)": {
        "details": "Returns the number of accounts that have `role`. Can be used together with {getRoleMember} to enumerate all bearers of a role."
      },
      "grantRole(bytes32,address)": {
        "details": "Grants `role` to `account`. If `account` had not been already granted `role`, emits a {RoleGranted} event. Requirements: - the caller must have ``role``'s admin role."
      },
      "hasRole(bytes32,address)": {
        "details": "Returns `true` if `account` has been granted `role`."
      },
      "initialize(address,address,uint256,uint256)": {
        "details": "initialize variables, used for upgradeable contracts"
      },
      "isApprovedForAll(address,address)": {
        "details": "See {IERC1155-isApprovedForAll}."
      },
      "mint(address,uint256,uint256,bytes)": {
        "details": "Creates `amount` new tokens for `to`, of token type `id`. See {ERC1155-_mint}. Requirements: - the caller must have the `MINTER_ROLE`."
      },
      "mintBatch(address,uint256[],uint256[],bytes)": {
        "details": "xref:ROOT:erc1155.adoc#batch-operations[Batched] variant of {mint}."
      },
      "pause()": {
        "details": "Pauses all token transfers. See {ERC1155Pausable} and {Pausable-_pause}. Requirements: - the caller must have the `PAUSER_ROLE`."
      },
      "paused()": {
        "details": "Returns true if the contract is paused, and false otherwise."
      },
      "renounceRole(bytes32,address)": {
        "details": "Revokes `role` from the calling account. Roles are often managed via {grantRole} and {revokeRole}: this function's purpose is to provide a mechanism for accounts to lose their privileges if they are compromised (such as when a trusted device is misplaced). If the calling account had been granted `role`, emits a {RoleRevoked} event. Requirements: - the caller must be `account`."
      },
      "revokeRole(bytes32,address)": {
        "details": "Revokes `role` from `account`. If `account` had been granted `role`, emits a {RoleRevoked} event. Requirements: - the caller must have ``role``'s admin role."
      },
      "safeBatchTransferFrom(address,address,uint256[],uint256[],bytes)": {
        "details": "See {IERC1155-safeBatchTransferFrom}."
      },
      "safeTransferFrom(address,address,uint256,uint256,bytes)": {
        "details": "See {IERC1155-safeTransferFrom}."
      },
      "setApprovalForAll(address,bool)": {
        "details": "See {IERC1155-setApprovalForAll}."
      },
      "supportsInterface(bytes4)": {
        "details": "See {IERC165-supportsInterface}. Time complexity O(1), guaranteed to always use less than 30 000 gas."
      },
      "unpause()": {
        "details": "Unpauses all token transfers. See {ERC1155Pausable} and {Pausable-_unpause}. Requirements: - the caller must have the `PAUSER_ROLE`."
      },
      "uri(uint256)": {
        "details": "concatenate base uri and ipfs hash of token"
      }
    },
    "title": "Forge Token Protocol",
    "version": 1
  },
  "userdoc": {
    "kind": "user",
    "methods": {
      "burnToken(uint256,address)": {
        "notice": "Burn a NFT token if certain conditions are met"
      },
      "burnTokenBatch(uint256[],address[])": {
        "notice": "Burn NFT tokens in a batch transaction"
      },
      "buyWithETH(uint256,address,uint256,uint256,string)": {
        "notice": "Create NFT Collecions paying with ETH"
      },
      "buyWithZUT(uint256,address,uint256,uint256,string)": {
        "notice": "Create NFT Collecions paying with ZUT"
      },
      "setContractURI(string)": {
        "notice": "*** ADMIN ****"
      }
    },
    "notice": "Mint NFTs with burnable conditions",
    "version": 1
  }
}